:020000004A2A8A
:10000800FF00030E8301B4000A08B5008A017008D6
:10001800A5007108A4007408A3007808A2007C0851
:10002800A1007D08A0000408A6008B1C24288B10C2
:1000380087010808A70008148816CD21270888001A
:100048002508F0002408F1002308F4002208F8002D
:100058002108FC002008FD002608840035088A00D5
:0A006800340E8300FF0E7F0E090026
:10007200710DF80DF90D7408F8027508031C750F5F
:10008200F902F00DF10D0F30FC00710DF80DF90DB4
:100092007408701C5228F8027508031C750FF902C7
:1000A2005728F80775080318750FF907F00DF10DB9
:1000B200FC0B4628701863287408F80775080318A3
:0800C200750FF90700000800AA
:0E00CA008312031333088A00320882000800F4
:1000D800831203137408003A031D7B287508003A3D
:1000E800031D7B28FF30F0007F30F100D4288312F5
:1000F8000313FD01F901F8017108700403190034B4
:1001080071087506FA00FA1BFD09FB01F51F912815
:10011800F409F509F40A0319F50AF11F9828F009FA
:10012800F109F00A0319F10A71087504FA00FA1BBB
:10013800AD2839207B18C028FD1F0034F009F109CB
:10014800F00A0319F10AF809F909F80A0319F90A72
:100158000034F51FBC28F11BB8287108F900700895
:10016800F800F101F001A028F101F001F00A0034D3
:10017800F109F009FB0A9D28F80A0319F90A74081D
:100188007802031DA02875087902031DA028F9012B
:10019800F801F00A0319F10AF11FA0280000FF3442
:0201A80008004D
:1001AA0083120313F8010830FC00700DF80D74086F
:1001BA00F8020318E228F8070310F00DFC0BDA28FE
:0201CA0008002B
:1001CC008312031308148816AF0117302F0203187B
:1001DC0057292F08173CF1007108B0007108033A39
:1001EC00031DFC280330B10008168812AE012E083E
:1001FC00323C031C542906118615061286160A3049
:10020C00F4003108F000D5207008B600B60D361099
:10021C00B60D3610B60D3610B60D36100A30F40089
:10022C003008F000D5200F30F00570083604870038
:10023C000D30FC00FB30FD00FD0B2229FC0B2229AC
:10024C000000000006158611061686120A30F4000E
:10025C003108F000D5207808F0007008B600B60D13
:10026C003610B60D3610B60D3610B60D36100A30E7
:10027C00F4003008F000D5207808F0000F30F005BD
:10028C007008360487001A30FC00F830FD00FD0BB6
:10029C004D29FC0B4D290000AE0AFD28B103AF0A15
:1002AC00EB28081208100C30B10088150815AF01A6
:1002BC000F302F020318CA292F080F3CF1007108C8
:1002CC00B0007108033A031D6F290330B100881484
:1002DC000811AE012E08323C031CC72906118615E5
:1002EC00061286160A30F4003008F000D52070088B
:1002FC00B600B60D3610B60D3610B60D3610B60D5E
:10030C0036100A30F4003108F000D5200F30F0051B
:10031C007008360487000D30FC00FB30FD00FD0B2F
:10032C009529FC0B95290000000006158611061670
:10033C0086120A30F4003008F000D5207808F0005E
:10034C007008B600B60D3610B60D3610B60D361058
:10035C00B60D36100A30F4003108F000D5207808BC
:10036C00F0000F30F0057008360487001A30FC00DE
:10037C00F830FD00FD0BC029FC0BC0290000AE0AB3
:0E038C007029B103AF0A5E298811881008009D
:10039A008312031306183D2A870129082A3E84007E
:1003AA00000888008618292AA90A29082A3E8400F2
:1003BA0000088800A8012808033C031C282AAE016B
:1003CA002E08323C031C262A0611861506128616AA
:1003DA0087010D30FC00FB30FD00FD0BF229FC0B00
:1003EA00F229000000000615861106168612280852
:1003FA00033CF000F101031CF1030A30F400003061
:10040A00F5006C207808F0007908F1000430F30058
:10041A007008F20073080319162AF20D7210FF3ED3
:10042A00102A0F30F0057008720487001A30FC0099
:10043A00F830FD00FD0B1F2AFC0B1F2A0000AE0A34
:10044A00E529A80AE029A90A2908043A0130031D66
:10045A000030F1000618332A0310342A0314F0017D
:10046A000318F00A7108F00403193C2AA901CD29DE
:02047A00080078
:10047C0065208A110A128000840AB20A0319B30A91
:08048C00F003031D3E2A0800E5
:1004940083120313A701A801A9012130AA00313056
:1004A400AB000C30AC000E30AD003230AE00AF010A
:1004B400B0011430B1008316860106148614870136
:1004C4008801831206150616870188018B170B16FF
:0C04D400831601138113E6206D2A6F2AA5
:02400E004A2F37
:00000001FF
